:1000000000000420750300005D0300005F03000092
:1000100061030000630300006503000000000000AE
:100020000000000000000000000000006703000066
:1000300069030000000000006B0300006D03000076
:100040006F0300006F030000DD0F00001D4600007D
:100050006F0300006F030000A53500006F03000070
:100060006F0300006F0300006F0300006F030000C8
:100070006F0300006F0300006F0300006F030000B8
:100080006F0300006F0300006F0300006F030000A8
:100090006F0300006F0300006F0300006F03000098
:1000A0006F0300006F0300006F0300006F03000088
:1000B0006F0300006F03000000000000000000005C
:1000C0006F0300006F0300006F0300006F03000068
:1000D0006F0300006F0300006F0300006F03000058
:1000E0006F0300006F0300006F03000000000000BA
:1000F000000000006F030000000000006F0300001C
:1001000000000000000000000000000000000000EF
:1001100000000000000000000000000000000000DF
:1001200000000000000000000000000000000000CF
:1001300000000000000000000000000000000000BF
:1001400000000000000000000000000000000000AF
:10015000000000000000000000000000000000009F
:10016000000000000000000000000000000000008F
:10017000000000000000000000000000000000007F
:10018000000000000000000000000000000000006F
:10019000000000000000000000000000000000005F
:1001A000000000000000000000000000000000004F
:1001B000000000000000000000000000000000003F
:1001C000000000000000000000000000000000002F
:1001D000000000000000000000000000000000001F
:1001E000000000000000000000000000000000000F
:1001F00000000000000000000000000000000000FF
:10020000354936480A1A02D0072291438D463449AF
:1002100034480A1A06D00722914381F30988022242
:1002200082F3148830483149314A00F044F83148AB
:100230003149324A00F03FF831483249324A00F041
:100240003AF832483249334A00F035F832483349F7
:10025000334A00F030F833483349344A00F02BF881
:1002600033483449344A00F026F8344834490022EF
:1002700000F02CF833483449002200F027F83348C6
:100280003349091A082902DB002202604160314A21
:1002900090471F481F49884205D00268043003B4C4
:1002A000904703BCF7E700208646EC46002000217B
:1002B000294A9047FEE7884207D0521A05D00378B2
:1002C00001300B700131013AF9D17047884202D0F8
:1002D00002700130FAE770470000042000E00320BC
:1002E0000000042000000420307F000000000020F7
:1002F00018000020D0030000D00300009877000011
:10030000307F0000000000200000002098770000EF
:1003100098770000987700009877000098770000A1
:10032000987700009877000098770000307F0000F1
:10033000487F00001800002018000020180000204E
:10034000A06D0120A06D0120A46D0120A46D0120ED
:10035000A48D01209D030000FD590000FEE7FEE78B
:10036000FEE7FEE7FEE7FEE7FEE7FEE7FEE7FEE765
:1003700000F002B8FFF7FCBF0F484FF007018843B9
:1003800085460E4880470E48016841F470010160BF
:10039000BFF34F8FBFF36F8FFFF732BF09480A4992
:1003A0000A4A884207D0521A05D0037801300B70F0
:1003B0000131013AF9D1704700000420715F00005B
:1003C00088ED00E098770000000000200000002089
:1003D00000487047986D012000B583B00190019BE3
:1003E0001B68184600F0E5F80346002B04D10B49C2
:1003F0004FF4F67000F00FFD019B1B681F2B02D815
:100400004FF0A04306E0019B1B6803F01F02019B15
:100410001A60034B184603B05DF804FB98770000A0
:100420000003005000B585B00190084611461A46F9
:1004300003468DF803300B468DF8023013468DF8D5
:10044000013001AB1846FFF7C7FF03909DF803206A
:100450009DF802305B001A439DF801309B001A435F
:100460009DF818301B0242EA03019DF81C301B0462
:10047000019A1943039B02F5E07243F8221000BF72
:1004800005B05DF804FB00B585B00390002301932F
:10049000002300930023012201210398FFF7C2FFEC
:1004A00000BF05B05DF804FB00B585B003900B46B6
:1004B0008DF80B309DF80B30002201920022009243
:1004C000002200210398FFF7ADFF00BF05B05DF8E3
:1004D00004FB00B585B0019001AB1846FFF77CFF27
:1004E0000390019B012202FA03F31946039800F0DE
:1004F0004CF800BF05B05DF804FB00B585B0019075
:1005000001AB1846FFF768FF0390019B012202FA36
:1005100003F31946039800F042F800BF05B05DF8F8
:1005200004FB00B585B0019001AB1846FFF754FFFE
:100530000390039BD3F804350293029BDA43019B9B
:10054000012101FA03F31A40039BC3F80825019B1C
:1005500001229A40029B1A40039BC3F80C2500BF5E
:1005600005B05DF804FB00B583B001900091009BDD
:10057000002B03D10198FFF7C0FF02E00198FFF7BD
:10058000A8FF00BF03B05DF804FB82B001900091AA
:10059000019B009AC3F8082500BF02B0704782B0E3
:1005A00001900091019B009AC3F80C2500BF02B096
:1005B000704784B00190019B5B0902930023039371
:1005C000029B002B03D0029B012B04D007E04FF0CD
:1005D000FF33039303E04FF6FF73039300BF019BC8
:1005E00003F01F030193039A019B22FA03F303F024
:1005F0000103002B14BF01230023DBB2184604B013
:100600007047000000B583B00190019B032B03D914
:100610000749472000F0FFFB064A019B13441B7863
:1006200001211846FFF79FFF00BF03B05DF804FBF0
:10063000E47700003078000000B583B00023019318
:1006400005E00198FFF7DEFF019B01330193019B59
:10065000032BF6D900BF00BF03B05DF804FB000018
:1006600000B583B00190019B032B03D907495F209C
:1006700000F0D1FB064A019B13441B781846FFF794
:1006800050FF00BF03B05DF804FB00BFE47700003B
:100690003078000000B583B00023019309E0094AD7
:1006A000019B13441B781846FFF7EDFE019B0133B5
:1006B0000193019B032BF2D9FFF7BEFF00BF03B0EC
:1006C0005DF804FB3078000000B583B0002301938F
:1006D0000AE0094A019B13441B7803211846FFF7DF
:1006E000E3FE019B01330193019B032BF1D900BF72
:1006F00000BF03B05DF804FB3478000000B583B0A0
:100700000190019B03F00103002B01D0FFF7C2FF12
:10071000019B03F00203002B01D0FFF7D5FF00BFC0
:1007200003B05DF804FB000086B0039002910192D3
:1007300001238DF817309DF81730204A039B136072
:100740001E4A029B53601D4A019B9360039B44F227
:100750000102934212D0039B44F20202934220D141
:10076000019B164AD360154BDB681B68134A9361E3
:10077000124BDB685B68114AD36112E0019B0F4AA0
:1007800013610E4B1B699B680C4A53610B4B1B6931
:100790001B680A4A9361094B1B695B68074AD3616E
:1007A00000BF72B600BF00BF9DF81730DBB2002B50
:1007B000FAD162B600BF00BF06B070471800002033
:1007C00000B583B002900091019244F2010071469D
:1007D0006A4600F003F803B000BD00BF00B587B063
:1007E00003900291019272B600BF039B44F2010292
:1007F000934207D0039B44F20202934205D1019B2E
:10080000059303E0019B049300E000BF074B1B68C6
:1008100003F00103002B00D000BE019A0299039857
:10082000FFF782FF00BF07B05DF804FBF0ED00E0CA
:1008300084B00190019B9B680393019BDA68039B42
:10084000D31A184604B0704782B001900B468DF859
:100850000330019B1A68019BDB68019989880B4072
:1008600013449DF803201A70019BDB685A1C019BFE
:10087000DA6000BF02B0704784B003900B4601926B
:10088000ADF80A30039B1A68039B9968BDF80A30DB
:100890000B44039989880B4013441A78019B1A7002
:1008A00000BF04B0704700B583B001900091009A7A
:1008B00000210198FFF7E0FF019B9B685A1C019BF8
:1008C0009A6000BF03B05DF804FB84B0039002910E
:1008D0001346ADF80630029B002B01D10E231DE01C
:1008E000BDF80630002B07D0BDF806305A1EBDF803
:1008F00006301340002B01D009230FE0039B029A1E
:100900001A60BDF80630013B9AB2039B9A80039BA4
:1009100000229A60039B0022DA600023184604B08C
:10092000704700B583B001900B468DF803300198F5
:10093000FFF77EFF0246019B9B889A4207D89DF8ED
:10094000033019460198FFF77FFF002300E00423DE
:10095000184603B05DF804FB00B583B00190009128
:100960000198FFF765FF0346002B05D00099019819
:10097000FFF799FF002300E00523184603B05DF858
:1009800004FB000000B587B00390029113468DF878
:10099000073000230593039B1B781A46114B9B5C81
:1009A000002B09D0039B04339DF8072002991846B9
:1009B00001F01CFD05900FE0039B1B781A46094BC4
:1009C0009B5C002B08D1039B0C339DF807200299F8
:1009D000184600F0ABFE0590059B184607B05DF881
:1009E00004FB00BF7800002000B585B00190002313
:1009F0008DF80F30019B1B781A46114B9B5C002B26
:100A000008D0019B0433184601F0B0FD03468DF871
:100A10000F300EE0019B1B781A46094B9B5C002BA4
:100A200007D1019B0C33184600F008FF03468DF8F0
:100A30000F309DF80F30184605B05DF804FB00BF7D
:100A40007800002000B587B00390029113468DF81E
:100A5000073000230593039B1B781A46114B9B5CC0
:100A6000002B09D0039B04339DF8072002991846F8
:100A700001F094FD05900FE0039B1B781A46094B8B
:100A80009B5C002B08D1039B0C339DF80720029937
:100A9000184600F02BFF0590059B184607B05DF83F
:100AA00004FB00BF7800002084B00190019B9B688C
:100AB0000393019BDA68039BD31A184604B070476E
:100AC00000B587B001900091019B1B78022B45D0A7
:100AD000022B6ADC002B52D0012B66D1019B1B7AC2
:100AE000002B05D1012233493348FFF7ABFF5DE00E
:100AF000019B5B681B7819463048FFF712FF059091
:100B0000059B002B0AD001238DF80C30059B049324
:100B10002B4B1B6803AA104698470DE02748FFF7A8
:100B2000C3FF0346002B07D000238DF80C30244B65
:100B30001B6803AA104698472048FFF7B5FF0346F5
:100B40001E4A9288934205D801221A491A48FFF793
:100B500079FF2BE01B4B01221A7027E002238DF84E
:100B60000C30019BDB680493012212491248FFF705
:100B700069FF134B1B6803AA1046984716E01249F9
:100B80001248FFF7E9FE0346002B05D101220E496A
:100B90000948FFF7F7FE09E003238DF80C30084BF6
:100BA0001B6803AA1046984700E000BF00BF07B0CB
:100BB0005DF804FB400000200000002044000020FD
:100BC00038000020410000203C000020540000209C
:100BD00030B591B00390029101928DF803303C4AF8
:100BE000019B1360029B002B01D107236DE0029B48
:100BF0001968029B5B689BB21A463648FFF765FE90
:100C00000F900F9B0E930E9B002B01D00E9B5CE070
:100C1000029B9968029BDB689BB21A462E48FFF73D
:100C200054FE0F900F9B0D930D9B002B01D00D9B3D
:100C30004BE02A4B04AC1D460FCD0FC495E80F00C6
:100C400084E80F00039B5B690A93039B1B7C002BCA
:100C500014BF01230023DBB28DF824309DF803304C
:100C60008DF82C30039B5B7C002B01D00E2300E021
:100C700000238DF82530039BDB680693039B9B685C
:100C80000793039B1B680593039B5B68049304AB6A
:100C9000134A1946134800F033F90F900F9B0C9339
:100CA0000C9B002B01D00C9B0FE00F4B00221A7005
:100CB000039B1B68B3F1FF3F06D001220B49094893
:100CC000FFF7C0FE034600E00023184611B030BD18
:100CD0003800002044000020540000203878000034
:100CE000C10A000000000020410000204000002058
:100CF00000B585B003468DF807309DF807301946DA
:100D00001048FFF70EFE0390039B002B15D10E48F1
:100D1000FFF76AFE034683F00103DBB2002B0CD021
:100D20000A490848FFF718FE0346002B05D10122A7
:100D300006490548FFF726FE0390039B184605B0B9
:100D40005DF804FB54000020000000203C0000205F
:100D500072B600BF034B1B680133024A136000BF29
:100D6000704700BF64000020064B1B68013B054A2A
:100D70001360044B1B68002B01D162B600BF00BF9B
:100D8000704700BF6400002000B583B0019000F000
:100D900025F80346012B03D00449432000F03BF81B
:100DA000FFF7D6FF00BF03B05DF804FBB478000086
:100DB00000B583B003468DF8073000F00FF8034606
:100DC000012B03D00449512000F025F8FFF7CCFF98
:100DD00000BF03B05DF804FBB478000084B0EFF30B
:100DE00005830193019BC3F308030393039B002B2B
:100DF0000DD1EFF314830093009B0293029B03F049
:100E00000103002B0CBF01230023DBB200E0012310
:100E1000184604B0704700B585B003460091ADF8A0
:100E20000630BDF806300293009B039302AB1A46CE
:100E3000002144F20200FFF7D1FC00BF05B05DF8CD
:100E400004FB00B583B001900091019BDBB2184612
:100E5000FFF74EFF019B184603B05DF804FB00004E
:100E600000B589B001900091009B0793019B1B780E
:100E70008DF80C30019B5B680493019B9B68DBB28F
:100E80008DF81430019BDB680693074A079B52F8E4
:100E900023300649079A51F8221003AA10469847B2
:100EA00000BF09B05DF804FB68000020700000205E
:100EB00000B589B001900091009B0793019B1B78BE
:100EC0008DF80C30019B5B680493019B9B68DBB23F
:100ED0008DF81430019BDB680693074A079B52F894
:100EE00023300649079A51F8221003AA1046984762
:100EF00000BF09B05DF804FB68000020700000200E
:100F000030B58FB0039002910192039B1B780C9334
:100F10002C490C9B019A41F82320029B1A692A490B
:100F20000C9B41F823200C9B012B07D1029B5B7F7C
:100F3000002B03D125497620FFF76DFF029B5B7FD5
:100F40001946234A0C9B13440A461A70029B04ACB0
:100F50001D460FCD0FC495E80F0084E80F000C9BD1
:100F6000089300230D93039B1B781A46184B9B5C38
:100F7000002B0DD0039B181D019B002B01D0154A9F
:100F800000E0002204AB194601F0CAF90D9014E00C
:100F9000039B1B781A460E4B9B5C002B0DD1039BC9
:100FA00003F10C00019B002B01D00B4A00E0002252
:100FB00004AB194600F006FB0D900D9B18460FB0D0
:100FC00030BD00BF680000207000002014790000D0
:100FD00078000020610E0000B10E000008B5064B3D
:100FE0001B68002B03D105495120FFF714FF024B6A
:100FF0001B68984700BF08BD7C0000206C7900008A
:1010000082B00190019B044A934201D1034B00E05E
:101010000023184602B07047002000407C000020EA
:1010200000B587B001900091019B002B03D11849B6
:101030007720FFF7F0FE0198FFF7E2FF0490049B92
:10104000002B1ED000238DF817300020FFF79CFEE8
:10105000049B1B79002B03D001238DF8173005E08A
:10106000049B009A1A60049B01221A710020FFF76A
:101070009FFE9DF81730002B03D011230393039B91
:1010800002E000230393039B184607B05DF804FBBE
:101090006C79000082B003468DF807309DF9073067
:1010A000002B0CDB9DF8073003F01F0205499DF96A
:1010B00007305B09012000FA02F241F8232000BF4B
:1010C00002B0704700E100E082B0034600918DF865
:1010D00007309DF90730002B0ADB009BDAB20C4980
:1010E0009DF907305201D2B20B4483F800230BE084
:1010F000009BDAB207499DF8073003F00F03043B69
:101100005201D2B20B441A7600BF02B0704700BF42
:1011100000E100E000ED00E082B00190019B1B0BBC
:101120005BB2184602B0704700B583B003460A466A
:101130008DF8073013468DF806309DF80630072BE2
:1011400003D908496B20FFF766FE9DF806209DF93C
:10115000073011461846FFF7B7FF00BF03B05DF830
:1011600004FB00BFC479000000B583B003468DF8CE
:1011700007309DF907301846FFF78CFF00BF03B01A
:101180005DF804FB84B001900B46ADF80230BDF869
:101190000230019A134400221A60BDF80230019A0D
:1011A00013441B680393039B00BF04B0704782B0D5
:1011B00001900B46ADF80230BDF80230019A13449D
:1011C0001B68002B14BF01230023DBB2184602B0BA
:1011D000704782B001900091019B009AC3F80423EC
:1011E00000BF02B0704782B001900091019BD3F81C
:1011F0000423009B1340002B14BF01230023DBB208
:10120000184602B0704782B001900091019B009A8D
:10121000C3F8082300BF02B0704784B00190019B5F
:10122000D3F880340393019B039AC3F88024039B73
:10123000184604B0704782B00190019B0422C3F8A5
:10124000002500BF02B0704784B003900291019264
:10125000039B019AC3F81425039B029AC3F80C253B
:1012600000BF04B0704784B0039002910192039BC9
:10127000029AC3F80825039B019AC3F8102500BF02
:1012800004B0704782B00190019BD3F81835DBB2EF
:10129000184602B0704782B001900B468DF80330BB
:1012A0009DF80320019BC3F81C2500BF02B07047C6
:1012B00082B001900B468DF803309DF80330019AFF
:1012C000134401221A6000BF02B0704782B001903F
:1012D0000B468DF8033013468DF802309DF803203D
:1012E0009DF802301343DBB21A46019BC3F86C250C
:1012F00000BF02B0704782B001900091019B009A3C
:10130000C3F8242500BF02B07047000000B583B0C9
:101310000190019B1B68184600F093F80346002BD0
:1013200004D10B494FF4F670FFF775FD019B1B6864
:101330001F2B02D84FF0A04306E0019B1B6803F06F
:101340001F02019B1A60034B184603B05DF804FBB3
:10135000F47900000003005000B585B00190084604
:1013600011461A4603468DF803300B468DF80230BD
:1013700013468DF8013001AB1846FFF7C7FF039005
:101380009DF803209DF802305B001A439DF8013060
:101390009B001A439DF818301B0242EA03019DF896
:1013A0001C301B04019A1943039B02F5E07243F8B9
:1013B000221000BF05B05DF804FB00B585B00390B6
:1013C00000230193002300930023012201210398AD
:1013D000FFF7C2FF00BF05B05DF804FB00B585B0A4
:1013E00003900B468DF80B309DF80B3000220192D4
:1013F00000220092002200210398FFF7ADFF00BFFA
:1014000005B05DF804FB00B585B0019001AB18464E
:10141000FFF77CFF0390019B012202FA03F31946B8
:10142000039800F004F800BF05B05DF804FB82B03B
:1014300001900091019B009AC3F8082500BF02B0FB
:10144000704784B00190019B5B09029300230393D2
:10145000029B002B03D0029B012B04D007E04FF02E
:10146000FF33039303E04FF6FF73039300BF019B29
:1014700003F01F030193039A019B22FA03F303F085
:101480000103002B14BF01230023DBB2184604B074
:10149000704700B583B001900091009B1B68B3F1C9
:1014A000FF3F09D0009B1B681846FFF7ACFF009B6D
:1014B0001B681846FFF781FF009B5B68B3F1FF3F95
:1014C00005D0009B5B6800211846FFF787FF019B52
:1014D0001A68009B9B6919461046FFF70CFF019B99
:1014E0001868009B597D009B1B7D1A46FFF7EEFE96
:1014F000019B1868009B1968009B5B681A46FFF700
:10150000A3FE009B1B7D012B22D1009B9B68B3F1A6
:10151000FF3F05D0009B9B6800211846FFF75EFF48
:10152000009BDB68B3F1FF3F09D0009BDB681846E6
:10153000FFF769FF009BDB681846FFF73EFF019B42
:101540001868009BD968009B9B681A46FFF78BFEC2
:1015500000BF03B05DF804FB00B583B001900B46FB
:101560008DF80330019B1B684FF48E711846FFF70E
:1015700009FE019B1B684FF4A2711846FFF702FE9B
:10158000019B1B680E491846FFF723FE019B1B6851
:101590001846FFF7C1FD03461A469DF80330194669
:1015A0001046FFF7C1FD019B1B681846FFF7B4FD0D
:1015B00003461846FFF7D8FD00BF03B05DF804FBF3
:1015C0008000020000B587B0039002910192029B57
:1015D000002B03D12D49AA20FFF71DFC039B1B798B
:1015E0001A462C2303FB02F3294A134405930023D4
:1015F0000493059B93F82A30002B03D0082304930F
:10160000049B3EE0039B1A68039B1B791946214B00
:1016100053F8213019461046FFF702FD0346002B10
:1016200003D011230493049B2BE002990398FFF746
:1016300030FF059B019A5A60029B1A69059B1A604C
:10164000059B5B68002B05D0029B1B7F1946039806
:10165000FFF782FF039B1B681846FFF7ECFD059B15
:1016600000229A61059B0022DA61059B002283F823
:101670002920059B00225A61059B012283F82A201C
:10168000049B184607B05DF804FB00BF247A0000F5
:1016900084000020787A000000B585B001900091A8
:1016A0004FF48E710198FFF76DFD009B9A68009BC7
:1016B0001B6A13441B788DF80F30009B1B6A5A1C61
:1016C000009B1A629DF80F3019460198FFF7E3FD61
:1016D00000BF05B05DF804FB00B585B00190009136
:1016E000009B5B69039316E0009B93F82830DBB204
:1016F000002B01D0002314E04FF48E710198FFF706
:1017000056FD034683F00103DBB2002BECD10099B8
:101710000198FFF7C1FF009B1B6A039A9A42EBD81E
:101720000123184605B05DF804FB000000B587B042
:10173000039002910192039B1B791A462C2303FB11
:1017400002F33C4A13440493049B93F82A30012B80
:1017500004D039494FF48C70FFF75DFB029B002BDE
:1017600004D1354940F21910FFF755FB019B002BBE
:1017700004D131494FF48D70FFF74DFB039800F011
:101780005DF80346002B03D011230593059B4CE025
:10179000049B019A5A61049B029A9A60049B00225E
:1017A0001A62049B002283F8282000230593039BE0
:1017B0001B684FF48E711846FFF7E4FC039B1B680F
:1017C00008211846FFF774FD039B1B68049918460F
:1017D000FFF762FF049B5B68002B25D1039B1B680E
:1017E00004991846FFF778FF034683F00103DBB244
:1017F000002B02D00F23059313E000BF039B1B684F
:101800004FF48E711846FFF7D2FC034683F00103B4
:10181000DBB2002BF2D1039B1B680C211846FFF7AB
:1018200047FD049B00225A61059B184607B05DF8EE
:1018300004FB00BF84000020247A000082B00190E5
:10184000019B1B791946074A2C2303FB01F3134420
:1018500014331B68002B14BF01230023DBB218468E
:1018600002B070478400002000B583B00190019B56
:101870001B684FF492711846FFF784FC019B1B68AC
:101880004FF484711846FFF77DFC019B1B68002113
:101890001846FFF70DFD00BF03B05DF804FB10B55F
:1018A00082B001900091009B9B69002B08D14FF4FE
:1018B00084710198FFF766FC0198FFF7E3FC13E0E1
:1018C0004FF484710198FFF75DFC009BDA68009B80
:1018D0005B6AD4180198FFF7D5FC03462370009B80
:1018E0005B6A5A1C009B5A6202B010BD00B589B0F9
:1018F000039002910192039B1B791A462C2303FB50
:1019000002F37F4A13440693039B1B7919467C4AD2
:101910002C2303FB01F313442A331B78012B04D03F
:1019200078494FF4B670FFF776FA029B002B04D18A
:10193000744940F26D10FFF76EFA019B002B04D141
:1019400070494FF4B770FFF766FA00238DF81F3027
:10195000069B5B68002B06D0039B1B684FF401714C
:101960001846FFF750FC069B9B69002B15D0069B81
:10197000DB69002B0ED0069B5B68002B06D0039B17
:101980001B684FF401711846FFF723FC11230593E0
:10199000059BB0E001238DF81F309DF81F3083F0C8
:1019A0000103DBB2002B0CD0069B019A9A61069BC7
:1019B000029ADA60069B00225A62069B0022DA61D4
:1019C00005E0069B029A1A61069B019ADA61069B62
:1019D00093F8293083F00103DBB2002B09D09DF886
:1019E0001F3083F00103DBB2002B02D00398FFF716
:1019F0003BFF069B5B68002B73D1039B1B684FF476
:101A0000A2711846FFF7BEFB039B1B684FF492714F
:101A10001846FFF7CCFB03468DF81330039B1B6879
:101A20004FF484711846FFF7C2FB03468DF812305D
:101A3000039B1B684FF4A2711846FFF7B8FB0346DF
:101A40008DF811309DF8123083F00103DBB2002BCA
:101A50000DD09DF8113083F00103DBB2002B06D0CE
:101A60009DF8133083F00103DBB2002BCCD19DF83D
:101A70001330002B0FD19DF81130002B0BD1039B9D
:101A80001B6806991846FFF70AFF069B9A69069B92
:101A90005B6A9A42B8D8069B00229A619DF813307F
:101AA000002B03D003230593059B24E09DF8113000
:101AB000002B03D00F230593059B1CE0069B93F896
:101AC0002930002B06D0039B1B6800211846FFF726
:101AD000EFFB0DE0039B1B6804211846FFF7E8FBB2
:101AE00006E0039B1B684FF401711846FFF771FB7A
:101AF00000230593059B184609B05DF804FB00BF61
:101B000084000020247A000000B589B0039002917F
:101B1000019201238DF81030029B0693019B0593DF
:101B2000039B5B68039A116804AA1046984700BF9C
:101B300009B05DF804FB00B587B001900091002367
:101B40008DF80830009B0493019B9B680393019BD5
:101B500000225A61019B5B68019A116802AA104633
:101B6000984700BF07B05DF804FB00B58BB001904B
:101B700000914FF400710198FFF735FB0346002BED
:101B800039D04FF492710198FFF711FB0346002BF7
:101B900031D04FF492710198FFF7F4FA4FF40171CC
:101BA0000198FFF730FB009B93F8293083F0010385
:101BB000DBB2002B03D004210198FFF779FB02234D
:101BC0008DF80C300198FFF728FB03460693009B25
:101BD0009B690593009BDB680493009B00229A613C
:101BE000009B0022DA61009B5B68009A116803AADF
:101BF0001046984752E004210198FFF7F4FA034693
:101C0000002B4BD04FF484710198FFF7D0FA0346B4
:101C1000002B43D000990198FFF741FE009B9A6981
:101C2000009B5B6A9A4239D1009BDB69002B19D07B
:101C3000009BDB680993009B5B6A0893009BDA6951
:101C4000009B9A61009B1A69009BDA60009B00224E
:101C5000DA61009B00225A62099A08990098FFF7FE
:101C600053FF1BE0009B93F8293083F00103DBB2A4
:101C7000002B03D004210198FFF71AFB4FF40171E8
:101C80000198FFF7C0FA009B00229A61009B596AF5
:101C9000009BDB681A460098FFF736FF4FF48E7101
:101CA0000198FFF784FA0346002B24D0009B5B6960
:101CB0000793009B1B6A079A9A420DD9009B93F8E1
:101CC0002830DBB283F00103DBB2002B04D0009993
:101CD0000198FFF7E1FC0EE04FF48E710198FFF7D9
:101CE00051FA009B5B69002B05D0009B5B6919468C
:101CF0000098FFF720FF4FF4A2710198FFF757FA01
:101D00000346002B1CD04FF4A2710198FFF73AFA5A
:101D1000009B93F82930002B03D000210198FFF796
:101D2000C7FA009B9B69002B0AD0009B00229A6196
:101D3000009B596A009BDB681A460098FFF7E4FE97
:101D400000BF0BB05DF804FB08B503490348FFF77B
:101D50000CFF00BF08BD00BF840000200020004031
:101D600082B003468DF807309DF90730002B0CDB5D
:101D70009DF8073003F01F0205499DF907305B0904
:101D8000012000FA02F241F8232000BF02B07047A0
:101D900000E100E082B0034600918DF807309DF924
:101DA0000730002B0ADB009BDAB20C499DF90730A3
:101DB0005201D2B20B4483F800230BE0009BDAB24D
:101DC00007499DF8073003F00F03043B5201D2B2DC
:101DD0000B441A7600BF02B0704700BF00E100E07C
:101DE00000ED00E082B00190019B03F06043B3F18D
:101DF000005F0CBF01230023DBB2184602B070471E
:101E000082B00190019B1B0B5BB2184602B0704779
:101E100000B583B003460A468DF8073013468DF8A7
:101E200006309DF80630072B03D908496B20FEF7D2
:101E3000F2FF9DF806209DF9073011461846FFF77E
:101E4000A9FF00BF03B05DF804FB00BF7C7A00006F
:101E500000B583B003468DF807309DF9073018466A
:101E6000FFF77EFF00BF03B05DF804FB84B0019074
:101E70000B46ADF80230BDF80230019A134400223F
:101E80001A60BDF80230019A13441B680393039B48
:101E900000BF04B0704782B001900B46ADF802302D
:101EA000BDF80230019A13441B68002B14BF0123B4
:101EB0000023DBB2184602B0704782B00190009157
:101EC000019BD3F80022009B1A43019BC3F8002218
:101ED00000BF02B0704782B001900091019BD3F81F
:101EE0000022009BDB431A40019BC3F8002200BF85
:101EF00002B0704782B001900091019B009AC3F834
:101F0000042300BF02B0704782B001900091019B92
:101F1000009AC3F8082300BF02B0704784B0019054
:101F2000019BD3F880340393019B039AC3F8802468
:101F3000039B184604B0704782B00190019B0822B1
:101F4000C3F8002500BF02B0704784B0039002912F
:101F50000192039B029AC3F80C25039B019AC3F8D4
:101F6000142500BF04B0704784B003900291019221
:101F7000039B029AC3F80825039B019AC3F8102516
:101F800000BF04B0704782B001900B468DF803305B
:101F90009DF80330019A134401221A6000BF02B079
:101FA000704782B001900B468DF8033013468DF8D0
:101FB00002309DF803209DF802301343DBB21A462D
:101FC000019BC3F86C2500BF02B0704782B001903E
:101FD0000091019B009AC3F8242500BF02B070470E
:101FE00084B0039002910192029A039BC3F84425A6
:101FF000039B019AC3F8482500BF04B0704782B024
:102000000190019BD3F84C35184602B0704784B05C
:10201000039002910192029A039BC3F83425039B1B
:10202000019AC3F8382500BF04B0704782B0019010
:10203000019BD3F83C35184602B0704700B583B019
:102040000190019B1B68184600F093F80346002B93
:1020500004D10B494FF4F670FEF7DDFE019B1B68BF
:102060001F2B02D84FF0A04306E0019B1B6803F032
:102070001F02019B1A60034B184603B05DF804FB76
:10208000AC7A00000003005000B585B0019008460E
:1020900011461A4603468DF803300B468DF8023080
:1020A00013468DF8013001AB1846FFF7C7FF0390C8
:1020B0009DF803209DF802305B001A439DF8013023
:1020C0009B001A439DF818301B0242EA03019DF859
:1020D0001C301B04019A1943039B02F5E07243F87C
:1020E000221000BF05B05DF804FB00B585B0039079
:1020F0000023019300230093002301220121039870
:10210000FFF7C2FF00BF05B05DF804FB00B585B066
:1021100003900B468DF80B309DF80B300022019296
:1021200000220092002200210398FFF7ADFF00BFBC
:1021300005B05DF804FB00B585B0019001AB184611
:10214000FFF77CFF0390019B012202FA03F319467B
:10215000039800F004F800BF05B05DF804FB82B0FE
:1021600001900091019B009AC3F8082500BF02B0BE
:10217000704784B00190019B5B0902930023039395
:10218000029B002B03D0029B012B04D007E04FF0F1
:10219000FF33039303E04FF6FF73039300BF019BEC
:1021A00003F01F030193039A019B22FA03F303F048
:1021B0000103002B14BF01230023DBB2184604B037
:1021C000704700B583B001900091009B1B68B3F18C
:1021D000FF3F09D0009B1B681846FFF7ACFF009B30
:1021E0001B681846FFF781FF009B5B68B3F1FF3F58
:1021F00005D0009B5B6800211846FFF787FF019B15
:102200001A68009B9B6919461046FFF7DFFE019B89
:102210001868009B597D009B1B7D1A46FFF7C1FE85
:10222000019B1868009B1968009B5B681A46FFF7C2
:102230008CFE009B1B7D012B22D1009B9B68B3F180
:10224000FF3F05D0009B9B6800211846FFF75EFF0B
:10225000009BDB68B3F1FF3F09D0009BDB681846A9
:10226000FFF769FF009BDB681846FFF73EFF019B05
:102270001868009BD968009B9B681A46FFF774FE9C
:1022800000BF03B05DF804FB00B583B001900B46BE
:102290008DF80330019B1B684FF488711846FFF7D7
:1022A000E5FD019B1B684FF490711846FFF7DEFDBA
:1022B000019B1B684FF492711846FFF7D7FD019BF5
:1022C0001B684FF4A2711846FFF7D0FD019B1B68F5
:1022D0004FF4AC711846FFF7C9FD019B1B680F490D
:1022E0001846FFF707FE019B1B681846FFF788FD9D
:1022F00003461A469DF8033019461046FFF788FD3D
:10230000019B1B681846FFF77BFD03461846FFF745
:102310009FFD00BF03B05DF804FB00BF1003420047
:1023200000B587B0039002910192029B002B03D16C
:102330002B49CF20FEF76FFD039B1B791A461346EE
:10234000DB0013449B00274A1344059300230493A6
:10235000059B93F82030002B03D008230493049BA3
:102360003AE0039B1A68039B1B7919461E4B53F8EE
:10237000213019461046FEF753FE0346002B03D0CA
:1023800011230493049B27E002990398FFF719FF98
:10239000059B019A5A60029B1A69059B1A60059B6E
:1023A0005B68002B05D0029B1B7F19460398FFF743
:1023B0006BFF039B1B681846FFF7BEFD059B0022C1
:1023C0009A61059B0022DA61059B00225A61059BF8
:1023D000012283F82020049B184607B05DF804FB17
:1023E000DC7A0000B0000020347B000000B589B02A
:1023F000039002910192039B1B791A461346DB005E
:1024000013449B00574A13440693069B93F82030CD
:10241000012B04D0544940F25310FEF7FCFC029B00
:10242000002B04D150494FF4AA70FEF7F4FC019B35
:10243000002B04D14C4940F25510FEF7ECFC039BF5
:102440001B79002B03D1019BB3F5803F04D3464990
:102450004FF4AB70FEF7DFFC0298FFF7C3FC0346B6
:1024600083F00103DBB2002B03D010230793079BFB
:1024700073E0039800F07AF80346002B03D0112391
:102480000793079B69E0069B019A5A61069B029A93
:102490009A6000230793039B1B684FF490711846C2
:1024A000FFF7E4FC039B1B684FF4AC711846FFF781
:1024B000DDFC039B1868069B9968069B5B691A46BE
:1024C000FFF78EFD039B1B6808211846FFF75BFD95
:1024D000069B5B68002B3FD1039B1B684FF49071F8
:1024E0001846FFF7D8FC03468DF81730039B1B688E
:1024F0004FF4AC711846FFF7CEFC03468DF816304A
:102500009DF8173083F00103DBB2002B06D09DF855
:10251000163083F00103DBB2002BDDD19DF81630BD
:10252000002B02D00F23079313E0039B1B680C21A1
:102530001846FFF728FD00BF039B1B684FF4AC71E2
:102540001846FFF7A8FC034683F00103DBB2002B1B
:10255000F2D1069B00225A61079B184609B05DF82C
:1025600004FB00BFB0000020DC7A000082B00190C4
:10257000019B1B791946084A0B46DB000B449B0064
:10258000134414331B68002B14BF01230023DBB258
:10259000184602B0704700BFB000002000B589B0F7
:1025A000039002910192039B1B791A461346DB00AC
:1025B00013449B00864A13440593039B1B791946D9
:1025C000834A0B46DB000B449B00134420331B78EB
:1025D000012B04D07F494FF4D370FEF71CFC029B03
:1025E000002B04D17B4940F2A710FEF714FC019B9D
:1025F000002B04D177494FF4D470FEF70CFC039BF9
:102600001B79002B03D1019BB3F5803F04D37149A3
:1026100040F2A910FEF7FFFB0298FFF7E3FB034629
:1026200083F00103DBB2002B03D010230793079B39
:10263000CAE000238DF81B30059B5B68002B06D099
:10264000039B1B684FF404711846FFF75DFC059B64
:102650009B69002B15D0059BDB69002B0ED0059BD9
:102660005B68002B06D0039B1B684FF4047118466F
:10267000FFF740FC11230793079BA5E001238DF88A
:102680001B309DF81B3083F00103DBB2002B09D017
:10269000059B019A9A61059B029ADA60059B0022CC
:1026A000DA6105E0059B029A1A61059B019ADA61DD
:1026B00000230793039B1B684FF488711846FFF7AC
:1026C000D5FB039B1B684FF4A2711846FFF7CEFBA6
:1026D000039B1B68019A02991846FFF798FC9DF826
:1026E0001B3083F00103DBB2002B06D0039B1B6879
:1026F00000211846FFF747FC05E0039B1B682021DB
:102700001846FFF7DAFB039B1B791946304A0B4644
:10271000DB000B449B00134404331B68002B4BD19C
:10272000039B1B684FF488711846FFF7B4FB034600
:102730008DF81330039B1B684FF4A2711846FFF706
:10274000AAFB03468DF81230039B1B684FF492716D
:102750001846FFF7A0FB03468DF811309DF81330A3
:1027600083F00103DBB2002B0DD09DF8123083F013
:102770000103DBB2002B06D09DF8113083F001037A
:10278000DBB2002BCCD1039B1B791946104A0B46B8
:10279000DB000B449B001344183300221A609DF8A1
:1027A0001130002B01D0032307939DF81230002B2A
:1027B00009D00F23079306E0039B1B684FF40471B5
:1027C0001846FFF797FB079B184609B05DF804FB16
:1027D000B0000020DC7A000000B589B003900291BF
:1027E000019201238DF81030029B0693019B059303
:1027F000039B5B68039A116804AA1046984700BFC0
:1028000009B05DF804FB00B587B00190009100238A
:102810008DF80830009B0493019B9B680393019BF8
:1028200000225A61019B5B68019A116802AA104656
:10283000984700BF07B05DF804FB00B589B0019070
:1028400000914FF492710198FFF725FB0346002B8E
:1028500022D04FF492710198FFF708FB02238DF804
:1028600008300198FFF75AFB034605930198FFF7DC
:10287000DDFB03460493009BDB680393009B00226F
:102880009A61009B0022DA61009B5B68009A1168E4
:1028900002AA104698473BE04FF488710198FFF771
:1028A000FAFA0346002B33D04FF488710198FFF7F2
:1028B000DDFA0198FFF7BAFB0790009B9B69079A26
:1028C0009A4225D1009BDB69002B17D0009BDB6867
:1028D000069320210198FFF7FEFA009BDA69009B1E
:1028E0009A61009B1A69009BDA60009B0022DA6102
:1028F000069A07990098FFF76FFF09E0009B0022F6
:102900009A61009BDB681A4607990098FFF764FFFD
:102910004FF4A2710198FFF7BEFA0346002B18D0BE
:102920004FF4A2710198FFF7A1FA009B9B69002B5D
:102930000FD0009B00229A61009B0022DA6101986F
:10294000FFF774FB0146009BDB681A460098FFF70F
:1029500043FF4FF490710198FFF79DFA0346002B57
:1029600014D04FF490710198FFF780FA0C21019870
:10297000FFF709FB009B5B69002B07D00198FFF76D
:102980003EFB034619460098FFF73DFF4FF4AC713C
:102990000198FFF780FA0346002B10D04FF4AC717A
:1029A0000198FFF763FA009B5B69002B07D0019841
:1029B000FFF725FB034619460098FFF724FF00BFE9
:1029C00009B05DF804FB000008B503490348FFF7B0
:1029D00034FF00BF08BD00BFB00000200020004051
:1029E00082B003468DF807309DF90730002B0CDBD1
:1029F0009DF8073003F01F0205499DF907305B0978
:102A0000012000FA02F241F8232000BF02B0704713
:102A100000E100E082B0034600918DF807309DF997
:102A20000730002B0ADB009BDAB20C499DF9073016
:102A30005201D2B20B4483F800230BE0009BDAB2C0
:102A400007499DF8073003F00F03043B5201D2B24F
:102A50000B441A7600BF02B0704700BF00E100E0EF
:102A600000ED00E082B00190019B1B0B5BB21846A9
:102A700002B0704700B583B003460A468DF80730B0
:102A800013468DF806309DF80630072B03D9084908
:102A90006B20FEF7C0F99DF806209DF9073011461E
:102AA0001846FFF7B7FF00BF03B05DF804FB00BF97
:102AB000387B000000B583B003468DF807309DF9E0
:102AC00007301846FFF78CFF00BF03B05DF804FB2A
:102AD00000B583B00346ADF80630BDF806301846A1
:102AE00000F026F803461B68012B0CBF01230023CE
:102AF000DBB2184603B05DF804FB00B585B00346B1
:102B0000ADF80630BDF80630184600F011F803465F
:102B10001A4600231360BDF80630184600F008F886
:102B200003461B680393039B00BF05B05DF804FBDD
:102B300082B00346ADF80630BDF8063003F180439D
:102B400003F5C043184602B07047000082B0019000
:102B5000034A019BC2F8043300BF02B0704700BFB4
:102B60000060004082B00190034BD3F80423019B26
:102B70001340184602B070470060004082B00190D8
:102B8000084A019B03F5A27352F82330054943F02C
:102B90000102019B03F5A27341F8232000BF02B09C
:102BA000704700BF0060004084B00390029113465C
:102BB0008DF80730144A039B03F5A27352F82330B3
:102BC000114923F44F3323F44073039A02F5A272A0
:102BD00041F822300C4A039B03F5A27352F82320DC
:102BE000029B1B0203F47C519DF807301B0403F485
:102BF00040330B4304491A43039B03F5A27341F886
:102C0000232000BF04B070470060004082B00190F4
:102C1000054A019B03F5A27352F823301B0A03F007
:102C20003F03184602B070470060004082B0019038
:102C3000064A019B03F5A27352F823301B0C03F0E4
:102C40000303DBB2184602B0704700BF00600040CB
:102C500000B583B00190019B1B68184600F02AF96B
:102C60000346002B04D10B494FF4F670FEF7D3F85E
:102C7000019B1B681F2B02D84FF0A04306E0019B6D
:102C80001B6803F01F02019B1A60034B184603B038
:102C90005DF804FB687B00000003005000B585B0C0
:102CA0000190084611461A4603468DF803300B463C
:102CB0008DF8023013468DF8013001AB1846FFF74E
:102CC000C7FF03909DF803209DF802305B001A4374
:102CD0009DF801309B001A439DF818301B0242EA10
:102CE00003019DF81C301B04019A1943039B02F554
:102CF000E07243F8221000BF05B05DF804FB00B598
:102D000085B003900B468DF80B309DF80B300022F8
:102D1000019200220092002200210398FFF7BEFFDB
:102D200000BF05B05DF804FB00B585B0019001ABB4
:102D30001846FFF78DFF0390019A039B02F5E0729E
:102D400053F8223023F002030293019A039B02F509
:102D5000E072029943F8221000BF05B05DF804FB51
:102D600000B585B001900B468DF8033001AB1846D5
:102D7000FFF76EFF0390019A039B02F5E07253F890
:102D80002230019A23F44031039B02F5E07243F8AC
:102D90002210019A039B02F5E07253F822309DF84D
:102DA000032012041146019A1943039B02F5E072B5
:102DB00043F8221000BF05B05DF804FB00B585B0F4
:102DC000019001AB1846FFF743FF0390039800F012
:102DD00020F80246019B22FA03F303F00103184690
:102DE00005B05DF804FB00B585B0019001AB184655
:102DF000FFF72EFF0390019A039B02F5E07253F850
:102E000022301B0C03F00303DBB2184605B05DF85B
:102E100004FB82B00190019BD3F81035184602B034
:102E20007047000088B0039002910192164A05ABEA
:102E300092E8030083E80300039B079319E0079BD4
:102E40009B0008AA134453F80C3CD3F82025019B9F
:102E50001A60079B9B0008AA134453F80C3C019A84
:102E60001268C3F82025019B04330193079B0133AB
:102E70000793039A029B1344079A9A42DFD300BF39
:102E800000BF08B0704700BF987B000000B585B058
:102E9000019001AB1846FFF7DBFE0390019B012276
:102EA00002FA03F31A46039BC3F8202500BF05B0BE
:102EB0005DF804FB84B00190019B5B090293002341
:102EC0000393029B002B03D0029B012B04D007E04D
:102ED0004FF0FF33039303E04FF6FF73039300BFFC
:102EE000019B03F01F030193039A019B22FA03F352
:102EF00003F00103002B14BF01230023DBB21846AB
:102F000004B0704784B001900091009B0393019B33
:102F1000DB080293019B03F0070301930122019B4D
:102F200002FA03F30399029A0A44127813401846EE
:102F300004B0704784B001900091009B0393019B03
:102F4000DB080293019B03F007030193039A029BA2
:102F500013441B785AB20121019B01FA03F35BB2BF
:102F6000134359B2039A029B1344CAB21A7000BFAA
:102F700004B0704782B001900C4A019B1344243383
:102F800093F90030002B09DB084A019B13442433DA
:102F900093F90030072B01DC012300E0002303F04C
:102FA0000103DBB2184602B0704700BFD400002016
:102FB00082B00190064A019B1344243393F90030F8
:102FC000072BCCBF01230023DBB2184602B07047A9
:102FD000D400002082B00190064A019B13442433A0
:102FE00093F90030DB43DBB2DB09DBB2184602B0F9
:102FF000704700BFD400002084B00390029101927A
:103000008DF80330029B59B20E4A039B13442433BC
:103010000A461A700B49029B019A41F823209DF839
:10302000033083F00103DBB2002B08D0029B083B86
:10303000039A51B2034A13440A4683F8542000BF4E
:1030400004B07047D400002082B00190044A019B74
:1030500013442433FF221A7000BF02B0704700BF30
:10306000D400002000B583B0019004490198FFF717
:1030700061FF00BF03B05DF804FB00BF2901002021
:1030800082B00190044A019B1344243393F9003029
:10309000184602B0704700BFD400002082B00190F3
:1030A000034A019B52F82330184602B0704700BF14
:1030B000D400002084B00190074A019B134454338C
:1030C00093F900308DF80F309DF80F3023F0C003D6
:1030D000184604B0704700BFD400002084B00190AF
:1030E000074A019B1344543393F900308DF80F3095
:1030F0009DF80F309B09DBB2184604B0704700BF43
:10310000D400002000B589B00390029113468DF8D9
:103110000730FF238DF81F309DF80730002B01D0BA
:10312000002300E0082305939DF80730002B01D011
:10313000082300E009230493059B069314E00F4A3B
:10314000069B52F82330B3F1FF3F0AD19DF80730B8
:10315000029A06990398FFF74FFF069B8DF81F30E0
:1031600006E0069B01330693069A049B9A42E6D337
:103170009DF91F30184609B05DF804FBD40000200B
:1031800082B003468DF807309DF80730094A4FF0AA
:10319000FF3142F823109DF80730072B07D99DF81F
:1031A0000730083B034A1344FF2283F8542000BF32
:1031B00002B07047D400002000B583B02D4B93F8C7
:1031C0005B30002B03D008230093009B4EE00023CC
:1031D0008DF8073011E09DF807301846FFF76AFEBA
:1031E0000346002B04D09DF807301846FFF72CFF4C
:1031F0009DF8073001338DF807309DF807302F2BED
:10320000E9D900238DF8073009E09DF8073018460A
:10321000FFF7B6FF9DF8073001338DF807309DF8B2
:103220000730082BF1D906220021134803F068FB70
:103230001248FFF717FC034606211846FFF71AFC51
:103240000E48FFF70FFC03461846FFF733FC4FF418
:10325000BE70FFF752FC4FF00040FFF777FC054BC4
:10326000012283F85B2000230093009B184603B0E3
:103270005DF804FBD400002029010020006000401C
:1032800000B587B00390029101920398FFF712FEF8
:103290000346002B04D136494FF40C70FDF7BBFDFB
:1032A000002305930398FFF795FE0346002B02D0F9
:1032B0000823059357E0029B9B78C3F34003DBB2DE
:1032C0001A4601990398FFF71DFF03468DF8133046
:1032D0009DF91330B3F1FF3F43D0029B9B78C3F3BA
:1032E0008003DBB283F00103DBB2002B13D0029B1F
:1032F0009B7803F00103DBB2002B03D00398FFF7A8
:1033000013FD05E0029B5B7819460398FFF7F7FC75
:103310000398FFF7A7FE029B9B7803F00203DBB242
:10332000002B08D09DF91300029B1B781A460399C5
:10333000FFF73AFC17E09DF91330083B0D4A1344A0
:1033400093F95410029B1B789B015AB29DF91330DC
:10335000083B0A4351B2074A13440A4683F85420F3
:1033600001E004230593059B184607B05DF804FBB4
:10337000A07B0000D400002000B589B001900B466E
:103380008DF803300198FFF795FD0346002B04D11B
:103390003A494FF41870FDF73EFD0198FFF71AFE09
:1033A0000346002B04D1354940F26120FDF733FD7F
:1033B0000198FFF7FDFD0346002B2AD00198FFF787
:1033C0005FFE0346083B1846FFF788FE03468DF86C
:1033D0000F309DF80F30032B0BD10198FFF7EEFC57
:1033E0000346002B01D0032300E002238DF81F3099
:1033F00008E09DF80F30012B01D1022300E00323E8
:103400008DF81F309DF81F3019460198FFF7A8FC72
:1034100030E00198FFF7AEFD0346002B2AD001985B
:10342000FFF72EFE03460693069B9BB240339BB2EA
:103430009B00ADF81630069B1846FFF79FFBBDF8C2
:1034400016301846FFF759FB9DF80330002B11D0BA
:103450000198FFF715FE03461846FFF71FFE04907C
:10346000049B002B06D00122069B02FA03F31846A8
:10347000FFF76CFB00BF09B05DF804FBA07B000008
:1034800000B585B00190019A02210020FFF7CAFC27
:10349000002303930BE0039B9B00019A13441B68DA
:1034A000002B01D0012306E0039B01330393039B10
:1034B000012BF0D90023184605B05DF804FB00008D
:1034C00000B587B00190002305935BE0344A059B6B
:1034D0001344543393F90030B3F1FF3F4ED00598B5
:1034E000FFF7E8FD049001990498FFF70BFD0346F0
:1034F000002B44D00598FFF7F1FD03468DF80F30FF
:103500000498FFF770FC03468DF80E309DF80E30DE
:10351000022B01D1032300E002238DF80D309DF82A
:103520000D3019460498FFF71BFC0498FFF7AEFC1A
:103530000498FFF7A5FD03461846FFF7AFFD02907C
:10354000029B002B1BD09DF80F30032B0FD09DF852
:103550000E30022B03D19DF80F30012B07D09DF8C0
:103560000E30032B0BD19DF80F30022B07D19DF8A5
:103570000F20029B11460498984700E000BF059B6E
:1035800001330593059B002BA0D00198FFF778FF2E
:103590000346002B97D100BF00BF07B05DF804FBC6
:1035A000D400002000B58BB00023099301AB0022AA
:1035B0001A605A604FF48073ADF81E3001230693F1
:1035C0000023089321E0BDF81E301846FFF780FA6B
:1035D0000346002B0ED00698FFF7C4FA0346002BD3
:1035E00008D0BDF81E301846FFF787FA099A069BE7
:1035F00013430993069B5B000693BDF81E3004330A
:10360000ADF81E30089B01330893089B072BDAD9CD
:103610004FF4BE70FFF75CFA0346002B0DD04FF459
:10362000BE70FFF76AFA099B43F00043099301ABB0
:103630001A4602210020FFF7F5FB099BDBB2002BA5
:1036400029D0012306930023089321E0069A099BC1
:103650001340002B16D00898FFF7D8FA0590089869
:10366000FFF7E4FA03468DF813300898FFF716FDCC
:103670000390039B002B05D09DF81320039B11465C
:1036800005989847069B5B000693089B01330893B7
:10369000089B072BDAD9099B002B03DA01AB1846EC
:1036A000FFF70EFF00BF0BB05DF804FB82B00346CE
:1036B0008DF807309DF90730002B0CDB9DF80730A3
:1036C00003F01F0205499DF907305B09012000FA4C
:1036D00002F241F8232000BF02B0704700E100E091
:1036E00082B003468DF807309DF90730002B0DDBC3
:1036F0009DF8073003F01F0206499DF907305B096A
:10370000012000FA02F2603341F8232000BF02B02A
:10371000704700BF00E100E082B0034600918DF8E1
:1037200007309DF90730002B0ADB009BDAB20C4909
:103730009DF907305201D2B20B4483F800230BE00D
:10374000009BDAB207499DF8073003F00F03043BF2
:103750005201D2B20B441A7600BF02B0704700BFCC
:1037600000E100E000ED00E082B00190019B03F079
:103770006043B3F1005F0CBF01230023DBB21846A6
:1037800002B0704782B00190019B1B0B5BB21846E0
:1037900002B0704700B583B003460A468DF8073083
:1037A00013468DF806309DF80630072B03D90849DB
:1037B0006B20FDF730FB9DF806209DF90730114680
:1037C0001846FFF7A9FF00BF03B05DF804FB00BF78
:1037D000F87B000000B583B003468DF807309DF9F3
:1037E00007301846FFF762FF00BF03B05DF804FB27
:1037F00000B583B003468DF807309DF907301846B1
:10380000FFF76EFF00BF03B05DF804FB82B00190CC
:103810000B468DF803309DF80330019A13440122C2
:103820001A6000BF02B0704784B001900B46ADF83B
:103830000230BDF80230019A134400221A60BDF82C
:103840000230019A13441B680393039B00BF04B02A
:10385000704782B001900B46ADF80230BDF80230DF
:10386000019A13441B68002B14BF01230023DBB211
:10387000184602B0704782B001900091019B009AF7
:10388000C3F8042300BF02B0704782B001900091DA
:10389000019B009AC3F8082300BF02B0704782B0B2
:1038A0000190019B0622C3F8002500BF02B07047BB
:1038B00082B00190019B0022C3F8002500BF02B036
:1038C000704784B0039002910192039B029AC3F85F
:1038D0000825039B019AC3F80C2500BF04B070476C
:1038E00082B001900091019B009AC3F8242500BF8B
:1038F00002B0704784B00190019BD3F8C4340393A5
:10390000019B039AC3F8C424039B184604B0704774
:1039100082B001900B468DF803309DF80320019B87
:10392000C3F8882500BF02B0704784B003900291AD
:103930000192029A039BC3F84425039B019AC3F8A2
:10394000482500BF04B0704784B0039002910192F3
:10395000029A039BC3F83425039B019AC3F83825C8
:1039600000BF04B0704782B001900091019B009AA3
:10397000C3F8002200BF02B0704782B00190019BE3
:10398000D3F84C35184602B0704782B00190019BC5
:10399000D3F80032184602B0704782B00190019B04
:1039A000D3F83C35184602B0704782B00190019BB5
:1039B0000122C3F8502500BF02B0704782B00190C9
:1039C000019B0022C3F8502500BF02B0704782B0AF
:1039D0000190019B0122C3F8402500BF02B070474F
:1039E00082B00190019B0022C3F8402500BF02B0C5
:1039F0007047000000B583B00190019B1B6818461A
:103A000000F04FF80346002B04D10B494FF4F67039
:103A1000FDF701FA019B1B681F2B02D84FF0A04352
:103A200006E0019B1B6803F01F02019B1A60034B19
:103A3000184603B05DF804FB287C0000000300502A
:103A400000B585B00190084611461A4603468DF828
:103A500003300B468DF8023013468DF8013001AB70
:103A60001846FFF7C7FF03909DF803209DF802302A
:103A70005B001A439DF801309B001A439DF81830F3
:103A80001B0242EA03019DF81C301B04019A1943F2
:103A9000039B02F5E07243F8221000BF05B05DF809
:103AA00004FB84B00190019B5B0902930023039304
:103AB000029B002B03D0029B012B04D007E04FF0A8
:103AC000FF33039303E04FF6FF73039300BF019BA3
:103AD00003F01F030193039A019B22FA03F303F0FF
:103AE0000103002B14BF01230023DBB2184604B0EE
:103AF000704784B0019003230393019B03F00103FB
:103B0000002B02D04FF402430393019B03F0020306
:103B1000002B02D048F201230393019B03F004031E
:103B2000002B02D048F202230393039B184604B0F3
:103B30007047000000B585B00190009101238DF819
:103B40000F30009B1B7B032B56D801A252F823F0A9
:103B5000C93B0000E13B0000A13B0000613B0000CD
:103B6000009B9B6803F48023002B07D00198FFF78C
:103B700004FF0246009B1B699A420DD1009B9B6883
:103B800003F48023002B39D10198FFF7F6FE02469B
:103B9000009B5B699A4231D000238DF80F302DE0F5
:103BA0000198FFF7EAFE0246009B1B699A4207D183
:103BB0000198FFF7F2FE0246009B5B699A421FD014
:103BC00000238DF80F301BE00198FFF7D6FE024668
:103BD000009B1B699A4215D000238DF80F3011E02D
:103BE0000198FFF7DAFE0246009B1B699A420BD050
:103BF00000238DF80F3007E000BF06E000BF04E0AF
:103C000000BF02E000BF00E000BF9DF80F3083F06E
:103C10000103DBB2002B05D00198FFF749FE0198A4
:103C2000FFF73DFE9DF80F30184605B05DF804FB28
:103C300000B58BB00590049103920293049B002B76
:103C400003D14A49E720FDF7E6F8049B1A68049B74
:103C50005B689A4203D14549E820FDF7DCF8059BF3
:103C60001B791A46342303FB02F3414A1344099398
:103C7000099B93F82D30002B03D008230793079B53
:103C800070E0059B1A68059B1B791946394B53F860
:103C9000213019461046FDF7C3F90346002B03D027
:103CA00011230793079B5DE0099B039A1A60099B08
:103CB000029A5A60099B00229A60099B002283F8AD
:103CC0003020099B002283F82F20049B5A7B099BFC
:103CD00083F83220049B1868002301930623009385
:103CE000032300220021FFF7ABFE049B586800234A
:103CF000019306230093032300220021FFF7A0FE77
:103D0000059B1B680893049B1968049B5B681A4613
:103D10000898FFF7D6FD049B9B6819460898FFF7A3
:103D2000DFFD099B1B68002B15D0059B1B681846FF
:103D3000FFF728FD03461A46049B1B7B19461046D5
:103D4000FFF728FD059B1B681846FFF71BFD034680
:103D50001846FFF73FFD099B012283F82D20002321
:103D60000793079B18460BB05DF804FB587C0000D6
:103D700030010020AC7C000000B585B00190019BB3
:103D80001B791A46342303FB02F30D4A13440393B1
:103D9000039B93F82D30012B04D00A4940F24F10B9
:103DA000FDF739F8019B1B681846FFF778FD039B68
:103DB000022283F82D2000BF05B05DF804FB00BF90
:103DC00030010020587C000000B583B001900091C4
:103DD000009B03F00103002B03D00198FFF7E5FDE2
:103DE00002E00198FFF7EAFD009B03F00203002BBD
:103DF00003D00198FFF7EBFD02E00198FFF7F0FD1B
:103E000000BF03B05DF804FB30B589B003900291A8
:103E1000019200930023079308238DF81B30039B26
:103E2000002283F82E20019BDB681846FFF79CFCDC
:103E3000034683F00103DBB2002B03D0102307936A
:103E4000079BFDE19D490298FFF71FFD039B93F837
:103E50002F30DBB2002B09D0039B9B6819460298D8
:103E6000FFF709FD11230793079BE9E1009B03F08E
:103E70000403002B06D1009B03F01003002B01D19B
:103E8000012300E0002303F00103DAB2039B83F86F
:103E90002F20039B019A03F10C0415460FCD0FC48C
:103EA0002B682360009B1B0903F00103002B14BF48
:103EB00001230023DAB2039B83F83020039B009A8E
:103EC0001A62019B5B7819460298FFF721FD4FF4B7
:103ED00082710298FFF7A8FC4FF492710298FFF7E5
:103EE000A3FC4FF4B0710298FFF79EFC4FF4A4714D
:103EF0000298FFF799FC00990298FFF765FF019B74
:103F00001B78032B00F2DE8001A252F823F000BFE1
:103F1000434000008B400000EB3F0000213F0000C9
:103F2000009B03F01003002B04D065494FF4D970B7
:103F3000FCF771FF009B03F00803002B04D06049DD
:103F400040F2B310FCF767FF009B03F00403002B63
:103F500004D05B494FF4DA70FCF75DFF019B1B69ED
:103F60001846FFF701FC034683F00103DBB2002B88
:103F700003D010230793079B62E14FF480710298EE
:103F8000FFF7F1FC019BD968019B5B681A46029818
:103F9000FFF7CBFC4FF4A8710298FFF745FC2021F6
:103FA0000298FFF733FC08210298FFF72FFC00BFAF
:103FB0004FF4A8710298FFF74CFC034683F001030D
:103FC000DBB2002BF4D14FF4A8710298FFF72CFC60
:103FD000019B1969019B9B681A460298FFF7A5FC93
:103FE000039B4FF480229A606FE0019BD968019B8C
:103FF0005B681A460298FFF798FC019B1B691846FC
:10400000FFF7B2FB034683F00103DBB2002B03D0C2
:1040100010230793079B13E1019B1969019B9B6880
:104020001A460298FFF790FC4FF484510298FFF76C
:104030009AFC039B02229A6020210298FFF7E6FB7C
:1040400043E0019BD968019B5B681A460298FFF721
:104050006CFC009B03F02003002B09D04FF480710F
:104060000298FFF780FC039B4FF480229A6007E0E0
:104070004FF400710298FFF776FC039B02229A60CE
:1040800020210298FFF7C2FB1FE0019BD968019B2A
:104090005B681A460298FFF757FC4FF4805102986C
:1040A000FFF761FC039B02229A6000238DF81B300E
:1040B00020210298FFF7AAFB07E000BF02029C0143
:1040C000587C00000723079300BF009B03F0080300
:1040D000002B09D1019B1B78032B05D09DF81B30C9
:1040E00019460298FFF792FB039B1B68002B1FD019
:1040F000009B03F00403002B02D0039B00229A6074
:10410000009B03F04003002B05D1039B9B6843F009
:104110000202039B9A60039B9B6843F40072039B1B
:104120009A60039B9B6819460298FFF7A4FB86E000
:1041300000238DF81A304FF4A4710298FFF789FB21
:104140000346002B02D001238DF81A304FF4827100
:104150000298FFF77EFB0346002B07D04FF48271D5
:104160000298FFF761FB01238DF81A304FF492712A
:104170000298FFF76EFB0346002B38D04FF4927184
:104180000298FFF751FB4FF4B0710298FFF761FB03
:1041900003468DF819300298FFF7F7FB05909DF85C
:1041A000193083F00103DBB2002B04D1059B03F42B
:1041B0000073002B0AD120210298FFF727FB14215E
:1041C0000298FFF723FB00238DF81A309DF8193071
:1041D000002B0CD0059B03F48073002B07D04FF409
:1041E000A4710298FFF720FB00238DF81A309DF888
:1041F0001A3083F00103DBB2002B9CD10298FFF749
:1042000079FB0490039B002283F82F20049B002B52
:1042100004D00498FFF76DFC079010E0009B03F0BA
:104220004003002B0BD103990298FFF783FC034650
:1042300083F00103DBB2002B01D003230793079B1C
:10424000184609B030BD00BF00B587B00390029199
:104250000192039B1B79002B09D1029B5B68B3F58C
:10426000803F04D2029B9B68B3F5803F04D31B4977
:1042700040F26A20FCF7CFFD00230593039B1B79D6
:104280001A46342303FB02F3154A13440493049B98
:104290001B68002B08D1029B1B78022B04D10F490D
:1042A00040F27220FCF7B7FD049B1B68002B08D17D
:1042B000029B1B78032B04D1084940F27320FCF7C2
:1042C000AAFD039B1968019B029A0498FFF79CFDC5
:1042D0000590059B184607B05DF804FB587C00006C
:1042E0003001002000B58BB00390019200930B4683
:1042F0008DF80B3000238DF814309DF80B308DF8BD
:104300001530009B069300230793019B089300231D
:1043100009939DF83030002B01D0202200E00022CC
:1043200005AB19460398FFF78FFF034618460BB0FD
:104330005DF804FB00B58BB00390019200930B462F
:104340008DF80B3001238DF814309DF80B308DF86B
:104350001530009B069300230793019B08930023CD
:10436000099305AB002219460398FFF76DFF03463A
:1043700018460BB05DF804FB30B58BB0019000918E
:10438000009B1B68002B04D1A24940F2C120FCF71E
:1043900042FD4FF492710198FFF75BFA0346002B40
:1043A0003ED04FF492710198FFF73EFA4FF48271BC
:1043B0000198FFF74EFA034683F00103DBB2002BAE
:1043C0002ED0009B9B6819460198FFF75EFA009B70
:1043D00002229A60009B9B6819460198FFF74BFAEE
:1043E0004FF4B0710198FFF734FA034683F00103EC
:1043F000DBB2002B07D10198FFF7C7FA034603F49D
:104400000073002B07D120210198FFF7FFF9142139
:104410000198FFF7FBF9009B012283F82E20F6E0BC
:104420004FF482710198FFF714FA0346002B5DD018
:104430004FF482710198FFF7F7F9009B1B6A03F0B4
:104440004003002B1AD1009B93F82E3083F0010318
:10445000DBB2002B12D000990198FFF76BFB0346EB
:10446000002B14BF01230023DBB283F00103DBB276
:1044700003F00103DAB2009B83F82E20009B1B6A35
:1044800003F00403002B79D1009B04AC03F10C056D
:104490000FCD0FC42B6823604FF4B0710198FFF764
:1044A000C3F94FF4AE710198FFF7BEF9009B93F882
:1044B000303083F00103DBB2002B04D1009B93F872
:1044C0002E30002B5AD000210198FFF74CFA009BA8
:1044D00000229A6050490198FFF7D7F90198FFF739
:1044E00051F903461846FFF783F947E04FF4A471EA
:1044F0000198FFF799F9009B1B7B002B22D1009BB1
:1045000004AC03F10C050FCD0FC42B682360009B96
:1045100093F8303083F00103DBB2002B2ED0002162
:104520000198FFF720FA009B00229A603A4901980F
:10453000FFF7ABF90198FFF725F903461846FFF797
:1045400057F91BE04FF400710198FFF70CFA009B3C
:1045500040F202229A6030490198FFF796F9009BD9
:104560009B6819460198FFF786F908210198FFF723
:104570004DF920210198FFF749F948E00198FFF72C
:10458000B9F90990099B03F00203002B03D0012322
:104590008DF80C301DE0099B03F00403002B03D0C1
:1045A00002238DF80C3014E0099B03F00103002B6B
:1045B00003D003238DF80C300BE0009B93F82E30D2
:1045C000002B03D004238DF80C3002E000238DF87B
:1045D0000C30009B93F8303083F00103DBB2002BEA
:1045E00003D0009B002283F82F20009B1B6A03F05E
:1045F0000403002B04D0009B93F82E30002B06D030
:10460000009B1B68009A516803AA104698470BB09C
:1046100030BD00BF587C000002029C0108B5034970
:104620000348FFF7A9FE00BF08BD00BF300100200E
:104630000030004082B00346ADF80630BDF90630C8
:1046400007EE903AF8EEE77A9FED037A67EE877A05
:10465000B0EE670A02B0704723DB793D82B00346B3
:10466000ADF80630BDF9063007EE903AF8EEE77A7D
:104670009FED037A67EE877AB0EE670A02B0704763
:1046800000000C4110B586B0039001921A460B460B
:104690008DF80B301346ADF80830039B5C68039B24
:1046A0009868BDF808309DF80B10019AA047059056
:1046B000059B184606B010BD10B586B00390019258
:1046C0001A460B468DF80B301346ADF80830039BA5
:1046D0001C68039B9868BDF808309DF80B10019A80
:1046E000A0470590059B184606B010BD00B585B0E3
:1046F00001900B468DF8033002AA01231021019886
:10470000FFF7C0FF0390039B002B11D19DF80330EE
:1047100003F00303DAB29DF8083062F383038DF8E7
:10472000083002AA012310210198FFF7C5FF03906A
:10473000039B184605B05DF804FB00B585B00190F9
:104740000B468DF8033002AA012310210198FFF7D0
:1047500099FF0390039B002B11D19DF8033003F0C8
:104760000F03DAB29DF8083062F307138DF80830B2
:1047700002AA012310210198FFF79EFF0390039BDB
:10478000184605B05DF804FB00B585B001900B46F6
:104790008DF8033002AA012311210198FFF772FF5F
:1047A0000390039B002B11D19DF8033003F0070306
:1047B000DAB29DF8083062F343038DF8083002AA9C
:1047C000012311210198FFF777FF0390039B1846FF
:1047D00005B05DF804FB00B585B001900B468DF87F
:1047E000033002AA012311210198FFF74BFF039028
:1047F000039B002B11D19DF8033003F00F03DAB2B5
:104800009DF8083062F307138DF8083002AA0123DF
:1048100011210198FFF750FF0390039B184605B044
:104820005DF804FB00B585B001900B468DF80330B0
:1048300002AA012312210198FFF724FF0390039B92
:10484000002B11D19DF8033003F00103DAB29DF87B
:10485000083062F386138DF8083002AA0123122172
:104860000198FFF729FF0390039B184605B05DF8F8
:1048700004FB00B587B00390029113468DF8073012
:104880009DF807309BB2029A3E210398FFF7FAFE8B
:104890000590059B184607B05DF804FB00B583B092
:1048A000019000910123009A0F210198FFF7EAFE81
:1048B0000346184603B05DF804FB00B585B00190CF
:1048C0000B468DF8033002AA012312210198FFF74D
:1048D000D9FE0390039B002B11D19DF8033003F008
:1048E0000103DAB29DF8083062F300038DF8083056
:1048F00002AA012312210198FFF7DEFE0390039B19
:10490000184605B05DF804FB00B585B00190009134
:1049100002AA012312210198FFF7B4FE03909DF82B
:104920000830C3F30003DBB21A46009B1A70039BE6
:10493000184605B05DF804FB00B585B001900B4644
:104940008DF8033002AA012312210198FFF79AFE85
:104950000390039B002B11D19DF8033003F001035A
:10496000DAB29DF8083062F382038DF8083002AAAB
:10497000012312210198FFF79FFE0390039B184625
:1049800005B05DF804FB00B585B001900B468DF8CD
:10499000033002AA012317210198FFF773FE039049
:1049A000039B002B29D19DF803301B0903F0010361
:1049B000DAB29DF8083062F3C3038DF808309DF831
:1049C000033003F00303DAB29DF8083062F34613B4
:1049D0008DF808309DF8083043F080038DF80830DA
:1049E0009DF808306FF382038DF8083002AA012386
:1049F00017210198FFF760FE0390039B184605B04E
:104A00005DF804FB00B585B001900B468DF80330CE
:104A100002AA012316210198FFF734FE0390039B9D
:104A2000002B5ED19DF803301B0903F00303DAB2BB
:104A30009DF8083062F305138DF808309DF80330B7
:104A4000DB09DBB203F00103DAB29DF8083062F350
:104A500086138DF8083002AA012316210198FFF76A
:104A60002BFE0390039B002B3BD102AA01231521AF
:104A70000198FFF707FE0390039B002B31D19DF8AF
:104A8000033003F00303DAB29DF8083062F3010348
:104A90008DF8083002AA012315210198FFF70CFEBA
:104AA0000390039B002B1CD102AA01231321019820
:104AB000FFF7E8FD0390039B002B12D19DF8033014
:104AC000DB0803F00103DAB29DF8083062F341031A
:104AD0008DF8083002AA012313210198FFF7ECFD9D
:104AE0000390039B184605B05DF804FB00B585B044
:104AF0000190009102AA01230E210198FFF7C2FD47
:104B00000390039B002B40F037819DF80030C3F3E6
:104B10000003DAB29DF8083062F300038DF8083024
:104B20009DF80030C3F34003DAB29DF8083062F319
:104B300041038DF808309DF80030C3F38003DAB2EA
:104B40009DF8083062F382038DF808309DF800303C
:104B5000C3F3C003DAB29DF8083062F3C3038DF8E3
:104B600008309DF80030C3F30013DAB29DF8083026
:104B700062F304138DF808309DF80030C3F340133E
:104B8000DAB29DF8083062F345138DF808309DF8CD
:104B90000030C3F38013DAB29DF8083062F3861355
:104BA0008DF808309DF80030C3F3C013DAB29DF8D9
:104BB000083062F3C7138DF8083002AA01230E21D2
:104BC0000198FFF779FD0390039B002B40F0D48000
:104BD00002AA01235F210198FFF754FD0390039B74
:104BE000002B40F0C9809DF80130C3F30003DAB216
:104BF0009DF8083062F300038DF808309DF801300D
:104C0000C3F34003DAB29DF8083062F341038DF834
:104C100008309DF80130C3F38003DAB29DF8083004
:104C200062F382038DF808309DF80130C3F3C003AE
:104C3000DAB29DF8083062F3C3038DF808309DF8AE
:104C40000130C3F30013DAB29DF8083062F30413A5
:104C50008DF808309DF80130C3F34013DAB29DF8A7
:104C6000083062F345138DF808309DF80130C3F326
:104C70008013DAB29DF8083062F386138DF808309D
:104C80009DF80130C3F3C013DAB29DF8083062F327
:104C9000C7138DF8083002AA01235F210198FFF79E
:104CA0000BFD0390039B002B66D102AA01230B216D
:104CB0000198FFF7E7FC0390039B002B5CD19DF864
:104CC0000230C3F30003DAB29DF8083062F3000348
:104CD0008DF8083002AA01230B210198FFF7ECFCA4
:104CE0000390039B002B47D102AA0123582101986E
:104CF000FFF7C8FC0390039B002B3DD19DF80130CA
:104D000003F00403DBB2002B22D19DF8013003F045
:104D10001003DBB2002B1BD19DF8013003F0200300
:104D2000DBB2002B14D19DF8013003F04003DBB25D
:104D3000002B0DD19DF8013003F00803DBB2002BEE
:104D400006D19DF8013023F07F03DBB2002B06D0A3
:104D50009DF8083043F080038DF8083005E09DF899
:104D600008306FF3C7138DF8083002AA01235821C9
:104D70000198FFF7A1FC0390039B184605B05DF86E
:104D800004FB00B585B001900B46ADF8023002ABD4
:104D90005A1C012307210198FFF774FC0390039B21
:104DA000002B18D1BDF80230DBB28DF80830BDF809
:104DB00002301B0A9BB203F00703DAB29DF80930F8
:104DC00062F302038DF8093002AA0223062101983A
:104DD000FFF772FC0390039B184605B05DF804FBD7
:104DE00000B585B001900B468DF8033002AA01236F
:104DF00007210198FFF746FC0390039B002B31D15C
:104E00009DF8033003F00103DAB29DF8083062F335
:104E100086138DF8083002AA012307210198FFF7B5
:104E20004BFC0390039B002B1CD102AA01231A21E7
:104E30000198FFF727FC0390039B002B12D19DF8EC
:104E400003305B0803F00103DAB29DF8083062F327
:104E500086138DF8083002AA01231A210198FFF762
:104E60002BFC0390039B184605B05DF804FB00B5CE
:104E700085B001900B468DF8033002AA012308216A
:104E80000198FFF7FFFB0390039B002B11D19DF8C6
:104E9000033003F00703DAB29DF8083062F302032F
:104EA0008DF8083002AA012308210198FFF704FCBD
:104EB0000390039B184605B05DF804FB00B585B070
:104EC00001900B468DF8033002AA012308210198B6
:104ED000FFF7D8FB0390039B002B11D19DF8033003
:104EE00003F00703DAB29DF8083062F3C5038DF8CA
:104EF000083002AA012308210198FFF7DDFB039087
:104F0000039B184605B05DF804FB00B585B0019021
:104F10000B468DF8033002AA012309210198FFF7FF
:104F2000B1FB0390039B002B11D19DF8033003F0DC
:104F30000703DAB29DF8083062F302038DF80830F7
:104F400002AA012309210198FFF7B6FB0390039BF6
:104F5000184605B05DF804FB00B585B001900B461E
:104F60008DF8033002AA012309210198FFF78AFB7B
:104F70000390039B002B11D19DF8033003F007032E
:104F8000DAB29DF8083062F3C5038DF8083002AA42
:104F9000012309210198FFF78FFB0390039B18461B
:104FA00005B05DF804FB00B585B001900B468DF8A7
:104FB000033002AA012309210198FFF763FB039044
:104FC000039B002B11D19DF8033003F00103DAB2EB
:104FD0009DF8083062F3C7138DF8083002AA012348
:104FE00009210198FFF768FB0390039B184605B061
:104FF0005DF804FB00B585B001900B468DF80330D9
:1050000002AA01230A210198FFF73CFB0390039BAE
:10501000002B11D19DF8033003F00703DAB29DF89D
:10502000083062F302038DF8083002AA01230A2136
:105030000198FFF741FB0390039B184605B05DF80C
:1050400004FB00B585B001900B468DF8033002AA31
:1050500001230A210198FFF715FB0390039B002B06
:1050600011D19DF8033003F00F03DAB29DF8083038
:1050700062F3C6038DF8083002AA01230A210198C1
:10508000FFF71AFB0390039B184605B05DF804FB7D
:1050900082B003468DF807309DF90730002B0DDBF9
:1050A0009DF8073003F01F0206499DF907305B09A0
:1050B000012000FA02F2603341F8232000BF02B061
:1050C000704700BF00E100E000B585B00190019B92
:1050D000002B0AD0074B43F001030393019B9B0174
:1050E0000293039B0298984700E000BF05B05DF86B
:1050F00004FB00BF607D000000B583B00190019B00
:10510000002B0AD04FF47A70FFF7DEFF019B013BC2
:105110000193019B002BF5D100E000BF03B05DF8C7
:1051200004FB0000B0B588B002AFF8607A601A46A0
:105130000B46FB7213463B816B461D463B895C1C4C
:10514000631E7B61234618464FF000014FF00002BA
:105150004FF00003CB0043EA5073C20023461846C9
:105160004FF000014FF000024FF00003CB0043EA84
:105170005073C20023460733DB08DB00ADEB030DA1
:1051800002AB00333B613B69FA7A1A703B69013329
:105190003A897968184601F08AFB3A69214600236A
:1051A00000930B466B210448FFF79CF80346AD467D
:1051B00018461837BD46B0BDB07C000000B589B0B8
:1051C000059003921A460B468DF813301346ADF83E
:1051D00010309DF813308DF8183006AA0123009383
:1051E00001236B210A48FFF77DF80790079B002BEE
:1051F00001D0079B07E0BDF81030039A6B210448EB
:10520000FFF798F80346184609B05DF804FB00BFA5
:10521000B07C00002DE9F04F93B00023ADF846308C
:1052200061E0022200217B4801F06AFB02227949F9
:105230007948FFF71EFB774BB3F900301846FFF7AC
:10524000F9F98DED0F0ABDF846309DED0F7ADFEDCF
:10525000736AC7EE267A724A9B001344C3ED007A44
:10526000022200216B4801F04BFB022269496A4887
:10527000FFF7FFFA674BB3F900301846FFF7DAF98A
:105280008DED0E0ABDF846309DED0E7ADFED636AB6
:10529000C7EE267A634A9B001344C3ED007A0222CC
:1052A00000215C4801F02CFB02225A495A48FFF7C2
:1052B000E0FA584BB3F900301846FFF7BBF98DED13
:1052C0000D0ABDF846309DED0D7ADFED546AC7EE4C
:1052D000267A554A9B001344C3ED007ABDF8463048
:1052E0000133ADF84630BDF84630B3F5007F98D3B2
:1052F0000023109384E04D4B1B881846484A109BAE
:105300009B0013441A684A4983000B441A60474BB8
:105310001B881846434A109B9B0013441A68454952
:1053200083000B441A60414B1B8818463E4A109B71
:105330009B0013441A68404983000B441A603B4B9E
:105340001B8801339AB2394B1A80354A109B9B0057
:1053500013441B68184601F08DF8CDE90A01314A63
:10536000109B9B0013441B68184601F083F8044609
:105370000D462D4A109B9B0013441B68184601F0F4
:1053800079F806460F462D4A109B9B0013441B6874
:10539000184601F06FF880468946294A109B9B0009
:1053A00013441B68184601F065F882468B46254A6F
:1053B000109B9B0013441B68184601F05BF80246E3
:1053C0000B46CDE90823CDE906ABCDE90489CDE94B
:1053D0000267CDE90045DDE90A231B4801F036FAF2
:1053E0000520FFF789FE114B1B88B3F5007F04D31E
:1053F0000E4B00221A80012308E0109B013310930A
:10540000109BB3F5007FFFF676AF0023184613B06C
:10541000BDE8F08F746D0020686D002000007A44B4
:105420006801002068090020681100207A6D0020C2
:10543000683D002068450020684D0020683100204C
:105440006835002068390020B87C00002DE9F04F55
:1054500095B000231393B6E002220021B64801F074
:105460004FFA0222B449B548FFF703FAB24BB3F939
:1054700000301846FFF7F2F88DED110A9DED117A14
:10548000DFEDAF6AC7EE267AAE4A139B9B0013444A
:10549000C3ED007A02220021A74801F031FA02226E
:1054A000A549A648FFF7E5F9A34BB3F90030184624
:1054B000FFF7D4F88DED100A9DED107ADFEDA06AAC
:1054C000C7EE267AA04A139B9B001344C3ED007AD3
:1054D00002220021984801F013FA022296499748C7
:1054E000FFF7C7F9944BB3F900301846FFF7B6F849
:1054F0008DED0F0A9DED0F7ADFED916AC7EE267AEA
:10550000924A139B9B001344C3ED007A02220021B0
:105510008F4801F0F5F902228D498848FFF7A9F973
:105520008B4BB3F900301846FFF784F88DED0E0A67
:105530009DED0E7ADFED826AC7EE267A854A139BCF
:105540009B001344C3ED007A02220021804801F041
:10555000D7F902227E497948FFF78BF97C4BB3F9E2
:1055600000301846FFF766F88DED0D0A9DED0D7AB7
:10557000DFED736AC7EE267A774A139B9B001344CC
:10558000C3ED007A02220021714801F0B9F902222C
:105590006F496A48FFF76DF96D4BB3F90030184653
:1055A000FFF748F88DED0C0A9DED0C7ADFED646A8B
:1055B000C7EE267A694A139B9B001344C3ED007A19
:1055C000139B01331393139BFF2B7FF745AF0023EE
:1055D0001293A8E0624B1B8818465E4A129B9B0000
:1055E00013441A685F4983000B441A605C4B1B88A4
:1055F0001846594A129B9B0013441A685A49830063
:105600000B441A60564B1B881846544A129B9B0049
:1056100013441A68554983000B441A60504B1B8889
:105620001846484A129B9B0013441A68504983004D
:105630000B441A604A4B1B881846434A129B9B0036
:1056400013441A684B4983000B441A60444B1B886F
:1056500018463E4A129B9B0013441A684649830031
:105660000B441A603E4B1B8801339AB23C4B1A80A4
:10567000384A129B9B0013441B68184600F0FAFE40
:10568000CDE90A01344A129B9B0013441B6818465B
:1056900000F0F0FE04460D46304A129B9B00134476
:1056A0001B68184600F0E6FE06460F46254A129B88
:1056B0009B0013441B68184600F0DCFE80468946B8
:1056C000214A129B9B0013441B68184600F0D2FE2F
:1056D00082468B461D4A129B9B0013441B6818464A
:1056E00000F0C8FE02460B46CDE90823CDE906AB23
:1056F000CDE90489CDE90267CDE90045DDE90A235A
:105700001E4801F0A3F80520FFF7F6FC144B1B8898
:10571000B3F5007F04D3124B00221A80012307E067
:10572000129B01331293129BFF2B7FF753AF002381
:10573000184615B0BDE8F08F7C6D0020686D002024
:1057400000007A4468310020683500206839002064
:10575000846D002068010020680900206811002085
:105760008A6D0020683D002068450020684D0020BB
:1057700068550020685D002068650020B87C000046
:1057800000B585B0844B1B78002B02D0012B31D0A3
:1057900046E0FFF73FFD0346002B27D000238DF89E
:1057A0000F301FE09DF80F3019467C4801F04EF88D
:1057B0009DF80F305B027A4A98189DF80F305B0213
:1057C000774A13448022194600F054FD0346002B0B
:1057D00003D0714B01221A7008E09DF80F3001339D
:1057E0008DF80F309DF80F30032BDBD96A4B012267
:1057F0001A7015E0FFF72AFE0346002B0FD04FF476
:1058000000726849684800F0ABFD03468DF80E3021
:105810009DF80E30022B02D15F4B00221A7000BFA0
:105820005D4B1B78012B2CD100216048FFF7E2FB78
:1058300003215E48FEF781FF00215C48FEF756FF1A
:1058400003215A48FEF7C7FF00215848FEF79CFF86
:1058500003215648FFF7F5FB01215448FFF7A3FB4E
:1058600040F203615148FFF78CFA01214F48FFF7DE
:1058700025FB01214D48FFF7FAFA01214B48FFF7BC
:10588000B9FB454B1B78002B28D100214748FFF777
:10589000B1FB00214548FEF79EFF03214348FEF778
:1058A0004CFF00214148FEF721FF03213F48FFF74D
:1058B000C8FB01213D48FFF776FB40F203613B48FE
:1058C000FFF75FFA00213948FFF7F8FA012137485E
:1058D000FFF7CDFA01213548FFF78CFB4FF48062CA
:1058E0000021334801F00CF84FF480620021314868
:1058F00001F006F84FF4806200212F4801F000F813
:105900004FF4006200212D4800F0FAFF4FF40062CE
:1059100000212B4800F0F4FF4FF4006200212948D9
:1059200000F0EEFF4FF480620021274800F0E8FF0E
:105930004FF4806200211A4800F0E2FF4FF48062C9
:105940000021224800F0DCFF4FF4006200212048D3
:1059500000F0D6FF4FF4006200211E4800F0D0FF97
:105960004FF4006200211C4800F0CAFFF1EE103A2B
:105970000093009B23F09F030193019BE1EE103AFB
:1059800000BFF1EE103A02932620FFF781FB00BF23
:1059900005B05DF804FB00BF8C6D0020CC7C0000DE
:1059A00068090020684D002068450020686D0020CF
:1059B00068310020683500206839002068550020D3
:1059C000685D0020686500206801002068110020E3
:1059D00068190020682100206829002000B583B0E4
:1059E00001900B468DF803300120FAF739FEFFF7DE
:1059F000C7FE00BF03B05DF804FB000000B5B1B006
:105A00000120FAF77BFE00F0FDFBFDF7D5FB2F90A0
:105A10002F9B2E932E9B002B05D0944A4FF4CF71D1
:105A20002E98FAF7CDFE924A2AAB126811461980D9
:105A30000233120C1A7003238DF8A93001238DF85C
:105A4000A8302F9B2D932D9B002B05D0874A4FF418
:105A5000D3712D98FAF7B4FE2AAB864A19462D2049
:105A6000FDF70EFC2F902F9B2C932C9B002B05D029
:105A70007E4A4FF4D6712C98FAF7A2FE01212D2010
:105A8000FDF77AFC26AB00221A605A609A60DA6051
:105A90002A2326932B2327934FF0CC73289302239A
:105AA0008DF8A43026A9002300227348FEF7C0F821
:105AB0002B902B9B002B05D06C4A4FF4DB712B985D
:105AC000FAF77EFE6C48FEF757F96C4B6C4A1A6089
:105AD0006A4B6C4A5A6000238DF897300DF197039A
